:100000000C94C2010C94D8270C94AD270C94822731
:100010000C9457270C942C270C9401270C94D6266B
:100020000C94AB260C9403280C9403280C940328FE
:100030000C94F3010C94F3010C94F3010C94F30170
:100040000C94F3010C94F3010C94F3010C94F30160
:100050000C94F3010C94F3010C94F3010C946126BD
:100060000C94F3010C9437260C940D260C94F30198
:100070000C94F3010C94F3010C94F3010C94F30130
:100080000C94F3010C94F3010C94F3010C94F30120
:100090000C94F3010C94F3010C94F3010C947F285D
:1000A0000C94F3010C94F3010C94F3010C94F30100
:1000B0000C94F3010C94F3010C94F3010C94F301F0
:1000C0000C94F3010C94F3010C94F3010C94E325CC
:1000D0000C94B9250C94F3010C948F250C94652590
:1000E0000C94F3010C94C2080C9484020C94F50B4C
:1000F0000C94D0220C94B4080C94CE030C943003CE
:100100000C941C0A0C94900B0C94B40A0C94591C7B
:100110000C94CA030C94DC030C94BC080C94D80314
:100120000C94461F0C94E1020C94C31D0C94AC0378
:100130000C94C9090C941F090C94B10A0C94F20B8D
:100140000C94EC0C0C9491130C94A5080C94B6032D
:100150000C94C60A0C945C0F0C9418020C94C30AFD
:100160000C9450230C949D030C94B70A0C94C00A71
:100170000C9428090C94BD0A0C94CB230C94160201
:100180000C9492020C94AC080C94E21C0C94A50301
:100190000C948A090C94380E0C94190A0C94960B42
:1001A0000C94C0030C94BC030C9468070C94AE240C
:1001B0000C949C0B0C94C4030C94A9030C94421D46
:1001C0000C94D2030C94D7030C94A3290C94CB0861
:1001D0000C945E020C9459050C94DE240C94C8080F
:1001E0000C94E90C0C9441050C94B2030C9470022D
:1001F0000C946C0E0C9422090C94350D0C942B0964
:100200000C94A1030C94EF0C0C9407350C94250965
:100210000C94930B0C940D230C94990B0C94CB041D
:100220000C9463070C94160A0C940E0E0C9455074C
:100230000C948C0F0C94CC040C94F80B0C94C90AFD
:100240000C94CE080C94BA0A0C94E5040C94A622E3
:100250000C9417020C94C5080C9497030C94E404B6
:1002600000000A0B02090C0D0E0807030401000030
:10027000000000000000000000000000000000007E
:10028000000000000000000000000000121110003B
:10029000000000000000000000000000000000005E
:1002A00000000000000000002100240027002A00B8
:1002B0002D003000330001010000040107010A0194
:1002C000000020002300260029002C002F0032000F
:1002D00000010000030106010901000022002500C1
:1002E00028002B002E00310034000201000005011F
:1002F00008010B01050505050705080808080202A5
:1003000002020A0A080804040404010101010101AF
:1003100001010303030303030303040707070C0C92
:100320000C0C0C0C0C0C0202020206060606060659
:1003300006060B0B0B0B0B0B0B0B010210202008FE
:100340000810204010204080020102010804020130
:10035000010204081020408080402010080402019F
:1003600080040201804020100804020108040201F8
:10037000010204081020408001020408102040807F
:10038000A329073511241FBECFEFD1E2DEBFCDBFB9
:1003900000E00CBF16E0A0E0B2E0E0E9F3E700E027
:1003A0000BBF02C007900D92A433B107D9F726E125
:1003B000A4E3B6E001C01D92A736B207E1F711E051
:1003C000C1ECD1E000E006C021970109802FFE01B9
:1003D0000E948B37C03CD10780E00807A9F70E9434
:1003E000C32E0C94B6390C940000E8EEF3E130E033
:1003F00020E041915191452B91F4F901EE0FFF1F3F
:10040000E851FC4E9183808323583F4FFC01358394
:10041000248320ED3FE03783268381E008952F5F1A
:100420003F4F2931310529F780E008950895089557
:10043000AF92BF92CF92DF92EF92FF920F931F93F2
:10044000CF93DF936C017B018B01040F151FEB0130
:100450005E01AE18BF08C017D10759F06991D601E7
:10046000ED91FC910190F081E02DC6011995892B49
:1004700079F7C501DF91CF911F910F91FF90EF9018
:10048000DF90CF90BF90AF900895FC01A089B18913
:100490008C91A689B78982FD0FC09C91818D8F5F59
:1004A0008F73228D821749F0A18DAE0FBF2FB11D22
:1004B0005F969C93818F08958C9108954FB7F8941F
:1004C000FC01238D348D858D968D4FBF28173907FC
:1004D00028F081509E4F821B930B08950197FBCF0C
:1004E000FC01918D828D981761F0A28DAE0FBF2F08
:1004F000B11D5F968C91928D9F5F9F73928F90E05C
:1005000008958FEF9FEF0895FC01918D828D9817CC
:1005100031F0828DE80FF11D878D90E008958FEF07
:100520009FEF0895FC01918D228D892F90E0805CD2
:100530009F4F821B91098F739927089588E897E050
:100540000E94920221E0892B09F420E0822F089575
:1005500087EE99E00E94920221E0892B09F420E0C5
:10056000822F089586E49CE00E94920221E0892B6C
:1005700009F420E0822F0895FC01A58DB68DA80F07
:10058000B91FA15ABF4F2C91858D968D0196917000
:10059000968F858FA689B7892C93A089B1898C9174
:1005A000837080648C93238D348D858D968D281770
:1005B000390731F40288F389E02D80818F7D8083B3
:1005C0000895FF920F931F93CF93DF93EC0181E087
:1005D000888F2B8D3C8D8D8D9E8D28173907C9F402
:1005E000E889F989808185FF14C09FB7F894EE8966
:1005F000FF896083E889F9898081837080648083C2
:100600009FBF81E090E0DF91CF911F910F91FF900C
:100610000895F62E0B8D1C8D0F5F1F4F11708D8D61
:100620009E8D8017910761F40FB607FCF8CFE8891B
:10063000F989808185FFF3CFCE010E94BC02EFCF04
:10064000EB8DFC8DEC0FFD1FE15AFF4FF0829FB741
:10065000F8941C8F0B8FEA89FB8980818062CFCF51
:10066000CF93DF93EC01888D8823B9F0AA89BB89E9
:10067000E889F9898C9185FD03C0808186FD0DC0D4
:100680000FB607FCF7CF8C9185FFF2CF808185FFF5
:10069000EDCFCE010E94BC02E9CFDF91CF9108954A
:1006A00080E090E0892B29F00E94B20281110E9423
:1006B000000080E090E0892B49F080E090E0892BF9
:1006C00029F00E94000081110E94000080E090E06B
:1006D000892B29F00E94A80281110E94000080E06D
:1006E00090E0892B29F00E949E0281110C94000059
:1006F00008958150823108F05AC0E82FF0E0882731
:10070000EB57FC4F8F4F0C948B37A503A90397032E
:100710009D03A103D703AC03B203B603BC03C0031C
:10072000C403CA03CE03D703D203D803DC038091EA
:1007300080008F77809380000895809180008F7D66
:10074000F9CF80918000877FF5CF84B58F7784BD06
:10075000089584B58F7DFBCF8091B0008F77809313
:10076000B00008958091B0008F7DF9CF8091900006
:100770008F77809390000895809190008F7DF9CFBE
:1007800080919000877FF5CF8091A0008F77809334
:10079000A00008958091A0008F7DF9CF8091A000E6
:1007A000877FF5CF809120018F7780932001089576
:1007B000809120018F7DF9CF80912001877FF5CF37
:1007C000CF93DF93282F30E0F901E05AFD4F849159
:1007D000F901E65CFC4FD491F901EC50FD4FC49156
:1007E000CC23A1F081110E947903EC2FF0E0EE0FF1
:1007F000FF1FE054FD4FA591B491EC91ED2381E0F2
:1008000090E009F480E0DF91CF91089580E090E0DE
:10081000FACF1F93CF93DF93282F30E0F901E05AEE
:10082000FD4F8491F901E65CFC4FD491F901EC5045
:10083000FD4FC491CC23A9F0162F81110E9479039A
:10084000EC2FF0E0EE0FFF1FE652FD4FA591B491A3
:100850008FB7F894EC91111108C0D095DE23DC938A
:100860008FBFDF91CF911F910895DE2BF8CFCF93EB
:10087000DF9390E0FC01E65CFC4F24918C509D4F8F
:10088000FC0184918823D1F090E0880F991FFC012E
:10089000EA55FD4FA591B491FC01E652FD4FC5917B
:1008A000D49161110EC09FB7F8948C91E22FE0951E
:1008B0008E238C932881E223E8839FBFDF91CF9121
:1008C00008958FB7F894EC91E22BEC938FBFF6CF9D
:1008D0003FB7F8948091C5069091C606A091C706CF
:1008E000B091C80626B5A89B05C02F3F19F0019608
:1008F000A11DB11D3FBFBA2FA92F982F8827BC017A
:10090000CD01620F711D811D911D42E0660F771FA1
:10091000881F991F4A95D1F708958F929F92AF92A1
:10092000BF92CF92DF92EF92FF924B015C010E9447
:1009300068046B017C010E9468046C197D098E09B2
:100940009F09683E734081059105A8F321E0821A52
:100950009108A108B10888EEC80E83E0D81EE11CFA
:10096000F11C81149104A104B10429F7FF90EF90C8
:10097000DF90CF90BF90AF909F908F9008952FB74A
:10098000F8946091C1067091C2068091C30690915F
:10099000C4062FBF089508952091BE063091BF066A
:1009A0002817390771F49091BD068091BC069817FD
:1009B00041F0E091BD06F0E0E458F94F808190E00D
:1009C00008958FEF9FEF08950895EF92FF920F9390
:1009D0001F93CF93DF93DC015C96ED90FC905D97C5
:1009E000E114F10479F481E090E013969C938E93E6
:1009F000129790E080E0DF91CF911F910F91FF90CF
:100A0000EF9008955196ED91FC91529750968C91EC
:100A10005097982F90950FB75E962C915E97122F56
:100A2000127021FD6095F8942081112319F1282B73
:100A30002083E7012197F1F728E0462F50E030812D
:100A400060FF1AC0382B3083E7012197F1F7BA0114
:100A500075956795215089F7112381F0808189234D
:100A600080830FBF5C968D919C910197F1F781E097
:100A700090E0C1CF2923DCCF3923E5CF9081892BAA
:100A8000EFCF2091BE063091BF062817390771F4C9
:100A90008091BC062091BD0690E0805C9F4F821B38
:100AA000910960E470E00E947737089590E080E05B
:100AB00008952091BE063091BF0628173907B9F472
:100AC0009091BD068091BC06981789F0E091BD0613
:100AD000F0E0E458F94F80812091BD0630E02F5FAF
:100AE0003F4F2F7333272093BD0690E008958FEF7B
:100AF0009FEF089520915906260F3327331F213287
:100B00003105ECF420915E07FC0190E080E0243098
:100B100069F082E00895A09159062191AC01475CEB
:100B2000594FA40FB52FB11D2C930196861798F33A
:100B300080915906680F6093590680E0089581E01E
:100B4000089510925E0781E080935D071092380748
:100B500061E084E10E94090461E085E10E940904EA
:100B6000E9EBF0E080818E7F808380818D7F8083C0
:100B700088E48093B80085E48093BC000895CF9307
:100B8000DF9391E0909338068823B9F0C091B800C4
:100B9000D091BA008091BC008A7B8093BC0060E059
:100BA00084E10E94090460E085E10E9409040E943A
:100BB000A105D093BA00C093B800DF91CF910895FA
:100BC0008F929F92AF92BF92CF92DF92EF92FF925D
:100BD0000F931F93CF93DF93D0918707D13208F003
:100BE000D7C0182FC09186070E9468046B017C0152
:100BF00080915E0781116BC082E080935E07109345
:100C00005D078FEF80935C0710925B07D0935A07C4
:100C1000A6E6B7E0EAE3F7E080E0D81391C01092CF
:100C2000390780913907CC0FC82BC09339078091C1
:100C30003807813009F088C0109238070E94680494
:100C40006B017C01809139078093BB008091600724
:100C500090916107A0916207B0916307892B8A2B5D
:100C60008B2BA1F00E94680400916007109161072E
:100C700020916207309163076C197D098E099F09E5
:100C8000061717072807390708F442C08091BC00EF
:100C900083FDD8CF85EC8093BC000E9468046B0173
:100CA0007C0180915E07823009F450C080915C071E
:100CB0008F3F09F46FC080915C07803209F46CC0EB
:100CC00080915C07803309F469C084E026C080917C
:100CD000600790916107A0916207B0916307892B2B
:100CE0008A2B8B2B09F484CF0E94680480906007C4
:100CF00090906107A0906207B09063076C197D091E
:100D00008E099F0986169706A806B90608F070CFC7
:100D100080915F070E94BF0585E0109265071092E1
:100D2000870710926407DF91CF911F910F91FF9079
:100D3000EF90DF90CF90BF90AF909F908F900895ED
:100D40009D9191938F5F69CF85EEA5CF80916007CC
:100D500090916107A0916207B0916307892B8A2B5C
:100D60008B2B09F49ECF0E946804009160071091BC
:100D7000610720916207309163076C197D098E0924
:100D80009F09061717072807390708F08ACFC0CF31
:100D900081E0C3CF80E0C1CF82E0BFCF83E0BDCF91
:100DA000E091170780911607E81730F4F0E0E85E4D
:100DB000F84F808190E008958FEF9FEF0895909114
:100DC0001707809116072FEF3FEF981748F4E92F88
:100DD000F0E0E85EF84F208130E09F5F90931707C6
:100DE000C90108958091160790911707891B990BE7
:100DF0000895CF92DF92EF92FF920F931F93CF93BC
:100E0000DF937C01CB018A0120916407222389F0C2
:100E1000EB016B01C40ED51ECC15DD0569F069919F
:100E2000D701ED91FC910190F081E02DC70119955A
:100E3000F3CF642F0E947A05C801DF91CF911F91F3
:100E40000F91FF90EF90DF90CF900895CF93DF93B5
:100E50001F92CDB7DEB76983209164072223F9F092
:100E600020918707203258F021E030E0FC013383E5
:100E7000228390E080E00F90DF91CF9108958091E0
:100E80006507E82FF0E0EA59F84F998190838F5F6A
:100E9000809365078093870781E090E0ECCF61E065
:100EA000CE0101960E947A05F7CF90E080E0089588
:100EB00008958EBD00000DB407FEFDCF8EB50895D8
:100EC0008CBD9DBD08958A579B4FFC01808108957C
:100ED000AF92BF92CF92DF92EF92FF920F931F9348
:100EE000CF93DF9300D01F921F92CDB7DEB7643649
:100EF00071054CF0FC01EA57FB4F2081F12CE12CED
:100F0000222309F476C0DA017B018C01BC01615E09
:100F10007D4FED91FC910190F081E02DCA01199572
:100F2000680128EEC21A2DEFD20A2FEFD6012C93BA
:100F3000F801E75EFD4F2EEF2083319680833196D6
:100F400090833196292F280F209520833196E082B7
:100F50001696FC9245E050E030E020E0DC01169669
:100F6000A417B50734F06191260F311D4F5F5F4F15
:100F7000F7CF7C01B8E0EB0EF11C800F911FFC0154
:100F8000E15EFD4F20952083E1E0EE16E2E0FE06F3
:100F9000B4F45601C5018C199D098E159F054CF5B9
:100FA000D80112968D919C91F50161915F01DC0150
:100FB000ED91FC910190F081E02D1995EBCF8EE43D
:100FC00092E09A83898383E08B838CEF92E09D8308
:100FD0008C83D801ED91FC910190F081E02DAE0160
:100FE0004F5F5F4F67E070E0C8011995EE24EA9407
:100FF000FE2CC7010F900F900F900F900F90DF9174
:10100000CF911F910F91FF90EF90DF90CF90BF9005
:10101000AF9008950F931F93CF93DF9300D000D02C
:1010200000D01F92CDB7DEB78C0182E492E09A83A4
:1010300089831B821C821D821E821F82188619864C
:101040001A86D801ED91FC910190F081E02DAE015E
:101050004F5F5F4F6AE070E0C80119950E94BF04BE
:10106000F80160877187828793872A960FB6F89474
:10107000DEBF0FBECDBFDF91CF911F910F910895BD
:10108000CF92DF92EF92FF92DC011D921D921D9292
:101090001C921397FB0130E020E0419150E0022EBA
:1010A00002C0440F551F0A94E2F7052E000C660B90
:1010B000770BCD90DD90ED90FC9013974C295D2936
:1010C0006E297F294D935D936D937C931397285FD1
:1010D0003F4F2032310509F7FF90EF90DF90CF901E
:1010E0000895FC01408351831282138208950F9367
:1010F0001F93CF93DF93182FEB010E946804DE014A
:10110000AA0FBB1FAA0FBB1FFD01E253F94F11230A
:1011100049F06083718382839383DF91CF911F9124
:101120000F9108950081118122813381AB01BC01AF
:10113000401B510B620B730BCD018252994FFC0186
:101140004083518362837383E8CF8CB18295817031
:1011500070E060E00C9477088CB185FB882780F9FB
:1011600061E070E00C94770889B182FB882780F9F0
:1011700062E070E00C94770889B163E070E0817000
:101180000C94770885E393E0089586E593E008954D
:101190008FE693E0089580E993E008954F925F927F
:1011A0006F927F928F929F92AF92BF92EF92FF9237
:1011B0000F931F93CF93DF9300D01F92CDB7DEB76D
:1011C0007C018B01CE0101960E94400889819A81A1
:1011D000AB81BC814C015D0124E0820E911CA11CFD
:1011E000B11CA8014D5F5F4FFA0124E030E02901F6
:1011F000712C612C481459046A047B0428F4618121
:1012000061932F5F3F4FF3CFF801E80FF91F13826F
:10121000F7015383428304960F900F900F900F9025
:10122000DF91CF911F910F91FF90EF90BF90AF9002
:101230009F908F907F906F905F904F90089580EA7D
:1012400093E0089581EC93E008958CED93E0089588
:101250008DEF93E008958F929F92AF92BF92CF92BD
:10126000DF92EF92FF920F931F93CF93DF93EC01E6
:101270008B018A81FB0180838B8181838C818283B6
:101280008D818383D12CC12C812C912C540184E03D
:10129000E82EF12CD801AE0DBF1D4A815B816C8117
:1012A0007D8184169506A606B706C0F48A899B89B7
:1012B0008C0D9D1DFC0120813181F901208131813E
:1012C000BD01F9011995E80EF91EFFEF8F1A9F0A6B
:1012D000AF0ABF0A8CE0C80ED11CDCCF8C898C937E
:1012E0008D8911968C9311978E8912968C931297F3
:1012F0008F8913968C93C7010496DF91CF911F912C
:101300000F91FF90EF90DF90CF90BF90AF909F90A4
:101310008F900895CF92DF92EF92FF920F931F93D9
:10132000CF93DF93EC018B0102960E942B09F80109
:10133000E80FF91F2A8D20832B8D21832C8D22838A
:101340002D8D23830496F801E80FF91F40E050E04B
:10135000BA01CF01801B910BCA8CDB8CEC8CFD8C0D
:101360004C155D056E057F0558F4AF8DB8A1A40F2F
:10137000B51F8C9181934F5F5F4F6F4F7F4FE9CFC8
:10138000DF91CF911F910F91FF90EF90DF90CF9061
:101390000895CF92DF92FF920F931F93CF93DF9325
:1013A000EC018B0102960E942B096801C80ED91E20
:1013B0002A8DF60120832B8D21832C8D22832D8D68
:1013C00023830496D60140E050E0BA010A8D1B8DBC
:1013D0002C8D3D8D4017510762077307F8F48D017E
:1013E0000C191D092AA13BA1200F311FF901F08022
:1013F0000181128123811496FC92149715960C9307
:10140000159716961C93169717962C931797049674
:101410004F5F5F4F6F4F7F4F1496D8CFDF91CF91C3
:101420001F910F91FF90DF90CF90089587E194E096
:10143000089588E394E008954F925F926F927F92AF
:101440008F929F92AF92BF92EF92FF920F931F9352
:10145000CF93DF9300D01F92CDB7DEB78C017B0115
:10146000CE0101960E94400889819A81AB81BC819E
:101470004C015D0124E0820E911CA11CB11CA7014E
:101480004D5F5F4FFA0124E030E02901712C612C9F
:10149000481459046A047B0428F4618161932F5F26
:1014A0003F4FF3CFE80EF91EF7011382F801538383
:1014B0004283F701448150E070E060E0F80144832A
:1014C000558366837783F7012581522BF801448386
:1014D000558366837783F7012681622BF801448365
:1014E000558366837783F7012781722BF801448344
:1014F000558366837783F701408550E070E060E0B4
:10150000F8014087518762877387F7012185522B45
:10151000F8014087518762877387F7012285622B24
:10152000F8014087518762877387F7012385722B03
:10153000F80140875187628773870C960F900F9050
:101540000F900F90DF91CF911F910F91FF90EF902F
:10155000BF90AF909F908F907F906F905F904F90D3
:10156000089585E594E0089586E794E0089586E877
:1015700094E0089587EA94E008958DEB94E008954F
:101580008EED94E0089587EF94E0089588E195E06A
:1015900008954F925F926F927F928F929F92AF9237
:1015A000BF92EF92FF920F931F93CF93DF9300D0E0
:1015B0001F92CDB7DEB77C018B01FB01808190E0EB
:1015C000B0E0A0E0F70182839383A483B583FB019D
:1015D0002181922BF70182839383A483B583FB013E
:1015E0002281A22BF70182839383A483B583FB011D
:1015F0002381B22BF70182839383A483B583FB01FC
:10160000848190E0B0E0A0E0F70186839783A08713
:10161000B187FB012581922BF70186839783A087F1
:10162000B187FB012681A22BF70186839783A087D0
:10163000B187FB012781B22BF70186839783A087AF
:10164000B187FB01808590E0B0E0A0E0F7018287E0
:101650009387A487B587FB012185922BF7018287A9
:101660009387A487B587FB012285A22BF701828788
:101670009387A487B587FB012385B22BF701828767
:101680009387A487B587645F7F4FCE0101960E9440
:10169000400889819A81AB81BC814C015D01F0E1F8
:1016A0008F0E911CA11CB11CA801415F5F4FFA0174
:1016B00020E130E02901712C612C481459046A049E
:1016C0007B0428F4618161932F5F3F4FF3CFF801D2
:1016D000E80FF91F1786F7015787468740960F9046
:1016E0000F900F900F90DF91CF911F910F91FF906E
:1016F000EF90BF90AF909F908F907F906F905F9092
:101700004F900895AB01FC01A681B781648175817A
:10171000ED91FC9111970190F081E02DCD0119948C
:1017200088E295E0089586E192E0089589E495E0E5
:1017300008958AE695E008954F925F926F927F92A6
:101740008F929F92AF92BF92EF92FF920F931F934F
:10175000CF93DF9300D01F92CDB7DEB77C018B0112
:10176000FB018191BF01F7018283CE0101960E94A6
:10177000400889819A81AB81BC814C015D01F5E013
:101780008F0E911CA11CB11CA8014C5F5F4FFA0188
:1017900025E030E02901712C612C481459046A04B9
:1017A0007B0428F4618161932F5F3F4FF3CFF801F1
:1017B000E80FF91F1482F7015483438305960F90B5
:1017C0000F900F900F90DF91CF911F910F91FF908D
:1017D000EF90BF90AF909F908F907F906F905F90B1
:1017E0004F9008958DE795E008958EE995E008956E
:1017F0004F925F926F927F928F929F92AF92BF9221
:10180000CF92DF92EF92FF920F931F93CF93DF93CC
:10181000CDB7DEB72C970FB6F894DEBF0FBECDBFA5
:101820007C018B01DB018C9190E0F7019383828333
:1018300011962C91922B938382836E5F7F4FCE0102
:1018400001960E94400889809A80AB80BC80240168
:101850003501F6E04F0E511C611C711C98012B5F85
:101860003F4FF90186E090E0AC0170E060E0441584
:1018700055056605770520F4418141930196F4CF23
:10188000B4016A5F7F4FF801E80DF91D1582D70199
:1018900015963C932E931497600F711FCE010596F9
:1018A0000E944008BAE08B0E911C4D805E806F80D4
:1018B0007884C401092C000CAA0BBB0B5C016D01E0
:1018C000A40CB51CC61CD71CF801E80DF91DAF010E
:1018D000401B510B70E060E04A155B056C057D050F
:1018E00038F42191AF0142505109DA012C93EFCF26
:1018F000480C591CB801640D751DFB01319710820D
:10190000C4010197800F911FF70197838683CE0151
:1019100009960E94400892012C5F3F4F89849A8467
:10192000AB84BC84A901032E000C660B770B480D19
:10193000591D6A1D7B1DF801E20FF31FCF01801BAB
:10194000910BB0E0A0E084179507A607B70728F42D
:101950008191DF0112978C93F1CFC901880D991DF8
:10196000F801E80FF91FDF0111971C92215031098E
:10197000020F131FD70119961C930E9318972181FC
:10198000428150E070E060E0BA0155274427522BB5
:101990002081422B2381722BF70142875387648772
:1019A000758704962C960FB6F894DEBF0FBECDBF98
:1019B000DF91CF911F910F91FF90EF90DF90CF902B
:1019C000BF90AF909F908F907F906F905F904F905F
:1019D000089587EB95E0089588ED95E00895FC0162
:1019E000DB014C9150E070E060E0428353836483FC
:1019F000758311968C911197582B4283538364837E
:101A0000758312968C911297682B4283538364835B
:101A1000758313968C911397782B42835383648339
:101A2000758314964C91149750E070E060E0468303
:101A300057836087718715968C911597582B46832D
:101A400057836087718716968C911697682B46830B
:101A500057836087718717968C91782B46835783BD
:101A60006087718788E090E00895DC01FB011296A1
:101A70008C911297808313968C911397818314967F
:101A80008C911497828315968C9115978383169663
:101A90008C911697848317968C9117978583189647
:101AA0008C911897868319968C91878388E090E0B3
:101AB0000895CF92DF92EF92FF920F931F93FC0154
:101AC000DB01C3800C2D10E030E020E045E03695CE
:101AD0002795179507954A95D1F70D931D932D934B
:101AE0003C9313978481C82ED12CF12CE12C53E028
:101AF000CC0CDD1CEE1CFF1C5A95D1F7C02AD12A54
:101B0000E22AF32ACD92DD92ED92FC921397858121
:101B1000082F10E030E020E06BE0000F111F221FC3
:101B2000331F6A95D1F70C291D292E293F290D93C2
:101B30001D932D933C931397468150E070E060E035
:101B400083E1440F551F661F771F8A95D1F74427FD
:101B5000552768777727042B152B262B372B0D93CA
:101B60001D932D933C931397478150E070E060E004
:101B700094E0440F551F661F771F9A95D1F7407F59
:101B8000577066277727C680D12CF12CE12C84E092
:101B9000F694E794D794C7948A95D1F74C295D2998
:101BA0006E297F294115510561057105A1F0405845
:101BB00053406109710997E1440F551F661F771F54
:101BC0009A95D1F7402B512B622B732B4D935D933C
:101BD0006D937C931397478150E070E060E0742F21
:101BE00066275527442744275527662770780D9187
:101BF0001D912D913C911397402B512B622B732BF0
:101C00004D935D936D937C93139788E090E01F91C3
:101C10000F91FF90EF90DF90CF900895EF92FF9299
:101C20000F931F93CF93DF938C017B01BC016E5FF9
:101C30007F4FC7010E94590DEC01B8016A5F7F4FC9
:101C4000C7018C0F9D1F0E94590DC80FD91FB801E5
:101C5000665F7F4FC7018C0F9D1F0E94590D8C0F2F
:101C60009D1FDF91CF911F910F91FF90EF900895ED
:101C7000EF92FF920F931F93CF93DF938C017B0121
:101C8000BC016E5F7F4FC7010E94590DEC01B80186
:101C90006A5F7F4FC7018C0F9D1F0E94590DC80FAF
:101CA000D91FB801665F7F4FC7018C0F9D1F0E942F
:101CB000590DC80FD91FB801625F7F4FC7018C0F44
:101CC0009D1F0E94590D8C0F9D1FDF91CF911F9179
:101CD0000F91FF90EF900895AF92BF92CF92DF9255
:101CE000EF92FF920F931F93CF93DF938C017B01B1
:101CF00002960E94C90AEC01B701680F791FC8015A
:101D000042960E94380EC80FD91F680184E2C80E9F
:101D1000D11C580188E4A80EB11CB601C7018C0F74
:101D20009D1F0E94590DC80FD91F84E0C80ED11CF9
:101D3000CA14DB0491F7B7016C0F7D1FC6010E9426
:101D40000E0EC80FD91F680186E5C80ED11C5801B8
:101D50008AE7A80EB11CB601C7018C0F9D1F0E9417
:101D6000590DC80FD91F84E0C80ED11CCA14DB045A
:101D700091F7B7016C0F7D1FC6010E940E0EC80FB0
:101D8000D91F680188E8C80ED11C04551F4FB60141
:101D9000C7018C0F9D1F0E94590DC80FD91F84E0E9
:101DA000C80ED11CC016D10691F7CE01DF91CF919C
:101DB0001F910F91FF90EF90DF90CF90BF90AF9069
:101DC00008958F929F92AF92BF92CF92DF92EF923F
:101DD000FF92CF93DF93EC014A015B01DB01CA0163
:101DE00047E1B595A795979587954A95D1F7992796
:101DF000AA27BB270097A105B10521F080589C4F69
:101E0000AF4FBF4F188219821A82B501A40125E095
:101E1000440F551F661F771F2A95D1F74B83B501D5
:101E2000A40133E075956795579547953A95D1F795
:101E30004C83B501A401EBE07595679557954795DF
:101E4000EA95D1F74D83B501A401F3E17595679546
:101E500057954795FA95D1F74F706C017D0124E0B5
:101E6000CC0CDD1CEE1CFF1C2A95D1F74C294E83AF
:101E70006C017D0134E0F594E794D794C7943A95CA
:101E8000D1F720E030E0A901C501B4010E94CC35B2
:101E900087FD0EC0CF8288E090E0DF91CF91FF9068
:101EA000EF90DF90CF90BF90AF909F908F9008956C
:101EB0008C2D80688F83EFCFEF92FF920F931F934B
:101EC000CF93DF937C018B01FC01428153816481BC
:101ED0007581C8010E94E10EEC01F701468157812E
:101EE00060857185C8018C0F9D1F0E94E10EC80F8F
:101EF000D91FF7014285538564857585C8018C0F0C
:101F00009D1F0E94E10E8C0F9D1FDF91CF911F91AD
:101F10000F91FF90EF900895EF92FF920F931F9310
:101F2000CF93DF937C018B01FC014281538164815B
:101F30007581C8010E94E10EEC01F70146815781CD
:101F400060857185C8018C0F9D1F0E94E10EC80F2E
:101F5000D91FF7014285538564857585C8018C0FAB
:101F60009D1F0E94E10EC80FD91FF70146855785B6
:101F700060897189C8018C0F9D1F0E94E10E8C0F32
:101F80009D1FDF91CF911F910F91FF90EF900895CA
:101F90000F931F93FC0100E012E12AE730E090E08C
:101FA000401751076207730740F436952795179538
:101FB00007959F5F9630A1F797E0292F286B26950C
:101FC00020839095917091831F910F9108954F9266
:101FD0005F926F927F928F929F92AF92BF92DF92A9
:101FE000EF92FF920F931F93CF93DF931F921F9255
:101FF000CDB7DEB7F82E162F042FD52E8091B4144E
:10200000882309F44EC08091B514882309F440C098
:102010004091BB145091BC146091BD147091BE14DA
:10202000CE0101960E94C80F89819A810E946007A3
:1020300060E08091B3140E9409048091B6148F2946
:102040000E945907B02EE02EFD2C80E00E94590717
:10205000D7018D937D018A2F8B198117B0F361E031
:102060008091B3140E94090481E090E00F900F90DA
:10207000DF91CF911F910F91FF90EF90DF90BF9074
:10208000AF909F908F907F906F905F904F9008954A
:102090004091B7145091B8146091B9147091BA146A
:1020A000BFCF8091A9149091AA142091A81431E077
:1020B0003093640720938607109265071092870774
:1020C000DC01ED91FC910190F081E02D6F2D1995CF
:1020D00080E00E94E005F090A8140E9468044B0183
:1020E0005C0180915E07811166C081E080935E078C
:1020F00080935D079FEF90935C0710925B07910FB1
:1021000090935A078093390780913907FF0CF82A7A
:10211000F092390780913807813009F094C010920D
:1021200038070E9468044B015C0180913907809355
:10213000BB008091600790916107A0916207B09108
:102140006307892B8A2B8B2BA1F00E946804409097
:10215000600750906107609062077090630768198C
:1021600079098A099B09461657066806790608F414
:1021700043C08091BC0083FDD8CF85EC8093BC0028
:102180000E9468044B015C0180915E07813009F474
:102190005CC080915B07811708F079C080915B0774
:1021A000AAE3B7E0E8E1F7E090E0981751F12D914C
:1021B00021939F5FFACF8091600790916107A09172
:1021C0006207B0916307892B8A2B8B2B09F489CF87
:1021D0000E94680440906007509061076090620719
:1021E00070906307681979098A099B094616570692
:1021F0006806790608F075CF80915F070E94BF05D9
:1022000080E0109217078093160790E09093B01427
:102210008093AF1418171906E1F5B02EE02EFD2CAF
:102220008091A9149091AA14DC01ED91FC91028493
:10223000F385E02D1995F70181937F018E2F8B197E
:10224000811770F311CF85EE99CF8091600790913F
:102250006107A0916207B0916307892B8A2B8B2BB2
:1022600009F492CF0E946804409060075090610783
:102270006090620770906307681979098A099B0961
:10228000461657066806790608F07ECFB5CF812F2F
:1022900087CF8FEF9FEFEACE2F923F924F925F92C0
:1022A0006F927F928F929F92AF92BF92CF92DF9266
:1022B000EF92FF920F931F93CF93DF93CDB7DEB7CB
:1022C00062970FB6F894DEBF0FBECDBF81E080935A
:1022D000B51441EC54E165E18091F7150E94E70FD8
:1022E00097FD1CC2E090C114F090C214FE24EF24AC
:1022F000FE24F092D714E092D6140091C3141091EA
:10230000C4141027012710271093D9140093D81450
:102310002091C5143091C6143227232732273A8BD7
:10232000298B3093DB142093DA142090C914309059
:10233000CA143224232432243092DD142092DC1477
:10234000A090CB14B090CC14BA24AB24BA24B09291
:10235000DF14A092DE14C090CD14D090CE14DC24F3
:10236000CD24DC24D092E114C092E0144091DD151C
:102370005091DE155A8349838091DF159091E015C5
:102380009C838B832091E1153091E2153E832D8350
:1023900040901315509014156090151570901615F7
:1023A000E49EC001E59E900DF49E900D11244B819A
:1023B0005C81049FB001059F700D149F700D112466
:1023C000680F791F49895A89429FC001439F900D28
:1023D000529F900D1124680F791F072E000C880B57
:1023E000990B0E944536A30192010E94FA36209172
:1023F00074153091751540917615509177150E949E
:102400005F35209180153091811540918215509152
:1024100083150E94FA366093EA147093EB1480934C
:10242000EC149093ED148091E3159091E415988746
:102430008F832091E5153091E6153A8729874091E1
:10244000E7155091E8155C874B879C01E29EC0011F
:10245000E39E900DF29E900D112449855A85049FAC
:10246000B001059F700D149F700D1124680F791F26
:1024700029893A894B855C85249FC001259F900D51
:10248000349F900D1124680F791F072E000C880BC4
:10249000990B0E944536A30192010E94FA362091C1
:1024A00078153091791540917A1550917B150E94DD
:1024B0005F35209184153091851540918615509196
:1024C00087150E94FA366093EE147093EF14809390
:1024D000F0149093F1148091E9159091EA159E877C
:1024E0008D878090EB159090EC152091ED15309133
:1024F000EE15388B2F87E89EB001E99E700DF89E8F
:10250000700D1124089DC001099D900D189D900D1E
:102510001124680F791F49895A89429FC001439F3E
:10252000900D529F900D1124680F791F072E000CFB
:10253000880B990B0E944536A30192010E94FA363E
:1025400020917C1530917D1540917E1550917F151D
:102550000E945F35209188153091891540918A1528
:1025600050918B150E94FA366093F2147093F31415
:102570008093F4149093F51440901715509018150B
:102580006090191570901A1529813A81229EC00118
:10259000239E900D329E900D11244B815C81A49E50
:1025A000B001A59E700DB49E700D1124680F791FA7
:1025B0002D813E81C29EC001C39E900DD29E900D82
:1025C0001124680F791F072E000C880B990B0E94AD
:1025D0004536A30192010E94FA36209144153091AC
:1025E000451540914615509147150E945F356093FF
:1025F000F6147093F7148093F8149093F9144F81A4
:102600005885249EC001259E900D349E900D112466
:1026100029853A85A29EB001A39E700DB29E700DD1
:102620001124680F791F4B855C85C49EC001C59E2F
:10263000900DD49E900D1124680F791F072E000C69
:10264000880B990B0E944536A30192010E94FA362D
:10265000209148153091491540914A1550914B15DC
:102660000E945F356093FA147093FB148093FC14FE
:102670009093FD148D859E85289EB001299E700D36
:10268000389E700D1124A89CC001A99C900DB89C87
:10269000900D1124680F791F2F853889C29EC001C3
:1026A000C39E900DD29E900D1124680F791F072EA6
:1026B000000C880B990B0E944536A30192010E94E1
:1026C000FA3620914C1530914D1540914E15509190
:1026D0004F150E945F356093FE147093FF14809332
:1026E00000159093011581E090E062960FB6F89482
:1026F000DEBF0FBECDBFDF91CF911F910F91FF9035
:10270000EF90DF90CF90BF90AF909F908F907F9091
:102710006F905F904F903F902F9008958FEF9FEFB5
:10272000E4CF4F925F926F927F928F929F92AF927F
:10273000BF92CF92DF92EF92FF92CF93DF93CDB70C
:10274000DEB7CC54D1090FB6F894DEBF0FBECDBFB3
:102750000E944C1180914316882309F40BC5C09048
:10276000FE14D090FF14E0900015F09001158091B8
:10277000FA149091FB14A091FC14B091FD148D8774
:102780009E87AF87B88B8091F6149091F714A09133
:10279000F814B091F9148D839E83AF83B8870E949B
:1027A00068044B015C0140903406509035066090FF
:1027B000360670903706DC01CB0184199509A6090D
:1027C000B7090097A105B04FB0F40E9468046419DE
:1027D0007509860997090E94433620E034E244E7F0
:1027E00059E40E94D13560939314709394148093AC
:1027F0009514909396148092340690923506A09288
:102800003606B092370680919B1490919C14A0914B
:102810009D14B0919E1489839A83AB83BC834090AE
:102820009F145090A0146090A1147090A2148091F5
:10283000A3149091A414A091A514B091A6148D8B0B
:102840009E8BAF8BB88F69817A818B819C819058E8
:102850002D813E814F8158850E94FA364B015C01E3
:102860002D853E854F855889C301B2010E94FA36F5
:102870009B01AC01C501B4010E945F354B015C01B5
:10288000A70196016D897E898F89988D0E94FA36FD
:102890009B01AC01C501B4010E945F3520E030E02E
:1028A00040E05FE30E94FA3621966CAF7DAF8EAFB9
:1028B0009FAF21978091971490919814A0919914AB
:1028C000B0919A1489879A87AB87BC872D813E8106
:1028D0004F815885BC01CD010E94FA364B015C0145
:1028E000A7019601C301B2010E94FA369B01AC0117
:1028F000C501B4010E9460354B015C012D853E8508
:102900004F8558896D897E898F89988D0E94FA3606
:102910009B01AC01C501B4010E945F3520E030E0AD
:1029200040E05FE30E94FA3625966CAF7DAF8EAF34
:102930009FAF25972D853E854F85588969857A8576
:102940008B859C850E94FA364B015C01A70196019C
:1029500069817A818B819C810E94FA369B01AC014E
:10296000C501B4010E945F354B015C012D813E81A0
:102970004F8158856D897E898F89988D0E94FA369E
:102980009B01AC01C501B4010E94603520E030E03C
:1029900040E05FE30E94FA3629966CAF7DAF8EAFC0
:1029A0009FAF2997A701960169857A858B859C85BC
:1029B0000E94FA366B017C012D853E854F85588932
:1029C00069817A818B819C810E94FA369B01AC01DE
:1029D000C701B6010E9460356B017C012D813E81EB
:1029E0004F815885C301B2010E94FA369B01AC01A8
:1029F000C701B6010E945F3520E030E040E05FE3B0
:102A00000E94FA362D966CAF7DAF8EAF9FAF2D979B
:102A100020E030E040E850E469857A858B859C852C
:102A20000E94FA366B017C0120E030E040E850E47F
:102A300069817A818B819C810E94FA36698B7A8BBD
:102A40008B8B9C8B20E030E040E850E4C301B20166
:102A50000E94FA36698F7A8F8B8F9C8F20E030E04E
:102A600040E051E469817A818B819C810E94FA3631
:102A70006DA37EA38FA398A720E030E040E051E44F
:102A8000C301B2010E94FA3669A77AA78BA79CA757
:102A900029813A814B815C81CA01B9010E94FA36D1
:102AA0006D837E838F839887A3019201C301B20156
:102AB0000E94FA366D877E878F87988B2D893E8995
:102AC0004F89588DCA01B9010E94FA366DA77EA7B9
:102AD0008FA798ABA3019201C301B2010E94603598
:102AE00020E030E0A9010E94FA3669AB7AAB8BABEB
:102AF0009CAB29813A814B815C81CA01B9010E945A
:102B0000603520E030E0A9010E94FA366DAB7EAB63
:102B10008FAB98AF2D853E854F855889C701B6018B
:102B20000E94FA3629A93AA94BA95CA90E946035EE
:102B30004B015C012D813E814F815885C701B60153
:102B40000E94FA369B01AC01C501B4010E946035B8
:102B50002DA93EA94FA958AD0E945F3569A37AA35C
:102B60008BA39CA32D893E894F89588DCA01B90139
:102B70000E94603520E030E0A9010E94FA3669AF7A
:102B80007AAF8BAF9CAF29853A854B855C85CA01AE
:102B9000B9010E94FA3620E030E040E850E40E949B
:102BA000FA364B015C0129853A854B855C85CA0163
:102BB000B9010E94603520E030E0A9010E94FA3698
:102BC0006B017C012DA53EA54FA558A969897A897D
:102BD0008B899C890E94FA3629AD3AAD4BAD5CAD2C
:102BE0000E945F356D8F7E8F8F8F98A3A501940112
:102BF00069817A818B819C810E94FA369B01AC01AC
:102C00006D8D7E8D8F8D98A10E946035A7019601F4
:102C10000E945F3529893A894B895C890E945F351A
:102C20006D8F7E8F8F8F98A32D813E814F81588528
:102C30006DA17EA18FA198A50E94FA369B01AC01DF
:102C40006D8D7E8D8F8D98A10E9460356D8F7E8FEA
:102C50008F8F98A32D853E854F8558896DA17EA1C4
:102C60008FA198A50E94FA369B01AC016D8D7E8DD7
:102C70008F8D98A10E94603529893A894B895C899A
:102C80000E946035698B7A8B8B8B9C8BA50194019C
:102C9000C301B2010E94FA36A70196010E94603575
:102CA0006B017C012DA53EA54FA558A9698D7A8D94
:102CB0008B8D9C8D0E94FA369B01AC01C701B60139
:102CC0000E94603529AD3AAD4BAD5CAD0E945F35D9
:102CD000298D3A8D4B8D5C8D0E945F356B017C0197
:102CE0002D813E814F81588569A57AA58BA59CA52C
:102CF0000E94FA369B01AC01C701B6010E94603503
:102D00006B017C012D853E854F85588969A57AA583
:102D10008BA59CA50E94FA369B01AC01C701B601A8
:102D20000E946035298D3A8D4B8D5C8D0E946035F7
:102D3000698F7A8F8B8F9C8F20E030E040E850E4E1
:102D40006D817E818F8198850E94FA362D893E891A
:102D50004F89588D0E94FA362DA93EA94FA958AD2A
:102D60000E945F356B017C0120E030E040E850E4D8
:102D70006D857E858F8598890E94FA362D893E89DA
:102D80004F89588D0E94FA369B01AC01C701B601EC
:102D90000E94603529A93AA94BA95CA90E945F3518
:102DA0006D877E878F87988B29A13AA14BA15CA163
:102DB000CA01B9010E94FA366B017C0129893A895E
:102DC0004B895C89CA01B9010E94FA369B01AC01AA
:102DD000C701B6010E9460356B017C01298D3A8DD7
:102DE0004B8D5C8DCA01B9010E94FA369B01AC0182
:102DF000C701B6010E9460356B017C012D853E85BF
:102E00004F855889CA01B9010E94FA369B01AC016D
:102E1000C701B6010E9460356B017C0120E030E003
:102E200040E05FE30E94FA364B015C01F594E794C1
:102E3000D794C7948FED99E5A7E3BFE58C199D0959
:102E4000AE09BF096C017D01AD019C01C501B40152
:102E50000E94FA36A70196010E94FA369B01AC0146
:102E600060E070E080EC9FE30E945F35A70196016F
:102E70000E94FA366B017C01AC019B01C501B401D3
:102E80000E94FA36A70196010E94FA369B01AC0116
:102E900060E070E080EC9FE30E945F35A70196013F
:102EA0000E94FA366B017C0180908214909083140A
:102EB000A0908414B09085148091931490919414F0
:102EC000A0919514B09196148D839E83AF83B8879B
:102ED000A701960169A17AA18BA19CA10E94FA3653
:102EE000A50194010E94FA369B01AC0121966CADBC
:102EF0007DAD8EAD9FAD21970E945F352D813E81C6
:102F00004F8158850E94FA3629853A854B855C8524
:102F10000E94603569877A878B879C87A701960115
:102F200069897A898B899C890E94FA36A501940166
:102F30000E94FA369B01AC0125966CAD7DAD8EAD3D
:102F40009FAD25970E945F352D813E814F81588529
:102F50000E94FA3629813A814B815C810E9460355A
:102F600069837A838B839C83A7019601698D7A8D0F
:102F70008B8D9C8D0E94FA36A50194010E94FA3631
:102F80009B01AC0129966CAD7DAD8EAD9FAD2997AF
:102F90000E945F352D813E814F8158850E94FA360F
:102FA000A30192010E946035698B7A8B8B8B9C8B7D
:102FB000A70196016D857E858F8598890E94FA36D6
:102FC000A50194010E94FA369B01AC012D966CADCF
:102FD0007DAD8EAD9FAD2D970E945F352D813E81D9
:102FE0004F8158850E94FA362D893E894F89588D28
:102FF0000E9460354B015C0129853A854B855C85D3
:10300000CA01B9010E94FA366B017C0129813A811B
:103010004B815C81CA01B9010E94FA369B01AC0167
:10302000C701B6010E9460356B017C0129893A898C
:103030004B895C89CA01B9010E94FA369B01AC0137
:10304000C701B6010E9460356B017C01A5019401A6
:10305000C501B4010E94FA369B01AC01C701B6015B
:103060000E9460356B017C0120E030E040E05FE3CE
:103070000E94FA362B013C01F594E794D794C7944B
:103080008FED99E5A7E3BFE58C199D09AE09BF094E
:103090006C017D01AD019C01C301B2010E94FA36B1
:1030A000A70196010E94FA369B01AC0160E070E036
:1030B00080EC9FE30E945F35A70196010E94FA36DB
:1030C0006B017C01AC019B01C301B2010E94FA3685
:1030D000A70196010E94FA369B01AC0160E070E006
:1030E00080EC9FE30E945F35A70196010E94FA36AB
:1030F0006B017C01AC019B0169857A858B859C8580
:103100000E94FA36609397147093981480939914E0
:1031100090939A14A701960169817A818B819C8191
:103120000E94FA3660939B1470939C1480939D14B4
:1031300090939E14A701960169897A898B899C894D
:103140000E94FA3660939F147093A0148093A11488
:103150009093A214A7019601C501B4010E94FA360A
:103160006093A3147093A4148093A5149093A61451
:1031700010929214C45BDF4F0FB6F894DEBF0FBEFF
:10318000CDBFDF91CF91FF90EF90DF90CF90BF90B8
:10319000AF909F908F907F906F905F904F90089529
:1031A0000F931F93CF93DF931F921F92CDB7DEB77C
:1031B000082F162F8091B4148823C9F14091B714B9
:1031C0005091B8146091B9147091BA14CE0101965F
:1031D0000E94C80F89819A810E94600760E08091F7
:1031E000B3140E940904802F0E945907812F0E9466
:1031F000590761E08091B3140E9409046AE070E00D
:1032000080E090E00E948D0441EC54E161E0802F69
:103210000E94E70F8091C114181781F18FEF9FEF83
:103220000F900F90DF91CF911F910F910895809192
:10323000A9149091AA142091A81431E03093640746
:10324000209386071092650710928707DC01ED91A5
:10325000FC910190F081E02D602F19958091A914C7
:103260009091AA14DC01ED91FC910190F081E02D88
:10327000612F199581E00E94E005C0CF81E090E0C8
:10328000CFCFCF93DF93EC011092B514823091052C
:1032900009F440C058F40097D9F0019741F1D09358
:1032A0003415C093331581E090E01EC08430910541
:1032B00009F446C0D0F1059791F760910B16809103
:1032C00005160E94D0186091121697FF1AC00AC006
:1032D00060910616809105160E94D01860910D1617
:1032E00097FF0FC08FEF9FEFDF91CF91089560910F
:1032F0000716809105160E94D01860910E1697FD52
:10330000F1CF80910C160E94D01897FFC8CF8EEF96
:103310009FEFEACF60910816809105160E94D018A1
:1033200060910F1697FFEDCFDDCF60910916809168
:1033300005160E94D0186091101697FFE2CFD2CFE9
:1033400060910A16809105160E94D018609111169E
:1033500097FFD7CFC7CF0F931F93CF93DF93D82F6C
:10336000C62F8A016091381680912A16682B8091A9
:1033700025160E94D01897FD25C06D2F8091261626
:103380000E94D01897FD21C0609129166C2B809166
:1033900028160E94D01897FD1BC061E070E080E005
:1033A00090E00E948D04A8016C2F8091FA150E9474
:1033B000E70F9093C0148093BF14DF91CF911F91BA
:1033C0000F9108958FEF9FEFF8CF8EEF9FEFF5CF1E
:1033D0008DEF9FEFF2CFCF93DF93D82FC62F609161
:1033E0003816809125160E94D01897FD28C06D2FA1
:1033F000809126160E94D01897FD24C06C2F8091D2
:1034000027160E94D01897FD20C060912916616090
:10341000809128160E94D01897FD1AC041EC54E103
:1034200061E08D2F0E94AB1997FD15C08091C114EA
:10343000C817A1F08AEF9FEFDF91CF9108958FEF2A
:103440009FEFFACF8EEF9FEFF7CF8DEF9FEFF4CF87
:103450008CEF9FEFF1CF8BEF9FEFEECF81E090E00D
:10346000EBCFCF93C82F1092B51463E18091131660
:103470000E94D01897FD45C060913B1680913A1686
:10348000CA30C8F00E94EB1997FF04C08EEF9FEF7F
:10349000CF91089564E670E080E090E00E948D0492
:1034A00060913C1680913A160E94EB1997FF10C06C
:1034B0008DEF9FEFEDCF0E94EB1997FDE7CF64E60C
:1034C00070E080E090E00E948D0460913D16EACFAC
:1034D00064E670E080E090E00E948D0441EC54E1ED
:1034E00067E0809139160E94AB196C2F80911316FA
:1034F0000E94D01897FD08C0C093351581E090E078
:10350000C7CF8FEF9FEFC4CF8CEF9FEFC1CFCF928C
:10351000DF92EF92FF92CF93DF931092B5146091F8
:103520000116809100160E94D01897FD7BC12AEFEA
:1035300030E04AEF5BE36091F3157091F4158091F0
:10354000F5159091F6150E94FA3660931715709351
:1035500018158093191590931A1510923215109220
:10356000311583E090E00E94411997FD5EC183E12F
:103570000E94311A97FD5CC11092381510923915CE
:1035800010923A1510923B1510923C1510923D1571
:1035900010923E1510923F15109240151092411551
:1035A0001092421510924315D0E0C0E0809136157C
:1035B00090913715C817D90708F08CC00E944C119C
:1035C000609136157091371590E080E00E94433687
:1035D0006B017C01209144153091451540914615B1
:1035E000509147156091F6147091F7148091F8147A
:1035F0009091F9140E946035A70196010E94D1357F
:10360000209138153091391540913A1550913B155C
:103610000E946035609338157093391580933A1580
:1036200090933B15209148153091491540914A15CA
:1036300050914B156091FA147091FB148091FC1419
:103640009091FD140E946035A70196010E94D1352A
:1036500020913C1530913D1540913E1550913F15FC
:103660000E94603560933C1570933D1580933E1524
:1036700090933F1520914C1530914D1540914E156A
:1036800050914F156091FE147091FF1480910015B8
:10369000909101150E946035A70196010E94D135D5
:1036A000209140153091411540914215509143159C
:1036B0000E946035609340157093411580934215C8
:1036C0009093431564E170E080E090E00E948D04E7
:1036D00021966CCF8091381590913915A0913A15AB
:1036E000B0913B158093441590934515A0934615D2
:1036F000B093471580913C1590913D15A0913E15D2
:10370000B0913F158093481590934915A0934A15A1
:10371000B0934B158091401590914115A0914215A1
:10372000B091431580934C1590934D15A0934E1571
:10373000B0934F15C0913115D09132151092B51438
:10374000C130D105B1F100F1C230D10509F450C04A
:10375000C330D10509F459C0D0933215C093311547
:1037600080913315909134150E94411997FD63C0E3
:10377000809135150E94311A97FD60C081E08093D9
:10378000431681E090E00EC0609101168091001612
:103790000E94D0182AEF30E04AEF5BE397FF15C094
:1037A0008CEF9FEFDF91CF91FF90EF90DF90CF9064
:1037B000089560910216809100160E94D0182AEF99
:1037C00030E04AE75CE397FDEBCF6091F315709131
:1037D000F4158091F5159091F6150E94FA366093D4
:1037E0001715709318158093191590931A15B4CF67
:1037F00060910316809100160E94D0182AEF30E0E5
:103800004AEF5CE397FFE1CFCBCF60910416809144
:1038100000160E94D01897FDC3CF2AEF30E04AE788
:103820005DE3D3CF8FEF9FEFBDCF8EEF9FEFBACF8A
:103830008DEF9FEFB7CF8BEF9FEFB4CF8AEF9FEF66
:10384000B1CF85ED8093BC008091600790916107B6
:10385000A0916207B09163070796A11DB11D23E0F7
:10386000B695A795979587952A95D1F72091BC0095
:1038700024FD03C010925E070895409160075091A7
:1038800061076091620770916307452B462B472BB8
:1038900069F30097A105B10541F025E32A95F1F7F9
:1038A00000000197A109B109E1CF80915F070C9455
:1038B000BF054F925F926F927F92AF92BF92CF926D
:1038C000DF92EF92FF920F931F93CF93DF93EC0160
:1038D0005B01FB01C080D180E280F3808A819B8103
:1038E000AC81BD818C159D05AE05BF0560F48CE0F3
:1038F0008C9DB0018D9D700D11248A899B890E9439
:10390000CC389B8B8A8BCA82DB82EC82FD82F12CC5
:10391000E12C412C512C320104E010E06E01F6E064
:10392000CF0ED11CF501E00FF11F8A819B81AC8184
:10393000BD81481659066A067B06C8F4BF01C60158
:103940000E941C0A080F191FAA89BB89AE0DBF1D52
:103950008CE0F60101900D928A95E1F78FEF481AFD
:10396000580A680A780AECE0EE0EF11CDBCF808181
:1039700090E0B0E0A0E08C8B9D8BAE8BBF8B218163
:10398000922B8C8B9D8BAE8BBF8B2281A22B8C8B31
:103990009D8BAE8BBF8B2381B22B8C8B9D8BAE8B83
:1039A000BF8BC8010496DF91CF911F910F91FF90BB
:1039B000EF90DF90CF90BF90AF907F906F905F902F
:1039C0004F900895AF92BF92CF92DF92EF92FF9205
:1039D0000F931F93CF93DF93EC018B0102960E940C
:1039E000591CF801E80FF91F20813181C280D12CC8
:1039F000F12CE12C7601DD24CC24D32AC22A2381A8
:103A0000F22A5C0124E0A20EB11C8A8D9B8DAC8D44
:103A1000BD8D8C159D05AE05BF0538F4B6018F8DA3
:103A200098A10E94CC3898A38F8FCA8EDB8EEC8E23
:103A3000FD8EF801EA0DFB1D40E050E0BA01CF0118
:103A4000801B910BCA8CDB8CEC8CFD8C4C155D05BE
:103A50006E057F0560F481918E8FAF8DB8A1A40FA4
:103A6000B51F8C934F5F5F4F6F4F7F4FE8CFDF9154
:103A7000CF911F910F91FF90EF90DF90CF90BF906B
:103A8000AF900895AF92BF92CF92DF92EF92FF92E4
:103A90000F931F93CF93DF93EC018B0102960E944B
:103AA000591C080F191FF80120813181C280D12CC7
:103AB000F12CE12C7601DD24CC24D32AC22A2381E7
:103AC000F22A5C01F4E0AF0EB11C8A8D9B8DAC8DA7
:103AD000BD8D8C159D05AE05BF0558F4B601660F6A
:103AE000771F660F771F8AA19BA10E94CC389BA3EA
:103AF0008AA3CA8EDB8EEC8EFD8E9801C12CD12C50
:103B00007601AE01425E5F4F8A8D9B8DAC8DBD8D7F
:103B1000C816D906EA06FB0650F5F90165818681CB
:103B200090E0B0E0A0E0DC0199278827962B648123
:103B3000862B6781B62B8E8F9F8FA8A3B9A3F4E045
:103B4000AF0EB11CC901801B910BAAA1BBA1A80F8C
:103B5000B91F84E0FA0101900D928A95E1F78FEF89
:103B6000C81AD80AE80AF80A2C5F3F4FCDCFC50122
:103B7000DF91CF911F910F91FF90EF90DF90CF9049
:103B8000BF90AF9008952F923F924F925F926F92A5
:103B90007F928F929F92AF92BF92CF92DF92EF92DD
:103BA000FF920F931F93CF93DF93CDB7DEB72E977E
:103BB0000FB6F894DEBF0FBECDBF8C016B01DB01E9
:103BC0008D909D90AD90BC90FC0182819381A481E9
:103BD000B58188159905AA05BB0570F4B401660F77
:103BE000771F660F771F828593850E94CC38D80196
:103BF0001B969C938E931A97F80182829382A482DB
:103C0000B582C60140E050E0BA01A4E0EA2EF12CF2
:103C100098012A5F3F4FDC011596EC911597169697
:103C20004C901697512C712C612C32015524442450
:103C30005E2A1496EC9114974E2A1796EC917E2AE0
:103C4000D7011701E4E02E0E311C71010496F80132
:103C500082809380A480B580481559056A057B054C
:103C6000A8F446825782608671861497A284B38432
:103C7000AA0DBB1DE4E0BE2EF90101900D92BA948D
:103C8000E1F74F5F5F4F6F4F7F4FC5CF84859585BD
:103C9000A685B78584159505A605B70570F4B2010C
:103CA000660F771F660F771F848995890E94CC382D
:103CB000D80155969C938E935497F8014486558667
:103CC00066867786C601820D931D412C512C3201E8
:103CD0001C019801205F3F4FDC0111966C911197F8
:103CE00012968C901297912CB12CA12C54019924EE
:103CF0008824962A6C91862A13966C91B62AB4E091
:103D0000EB0EF11CF80144855585668577854416D0
:103D1000550666067706C0F4808A918AA28AB38A1D
:103D2000BC0162197309A489B589A60FB71F64E0A5
:103D3000F90101900D926A95E1F7BFEF4B1A5B0A0A
:103D40006B0A7B0A0496C8CF86899789A08DB18DAE
:103D500088159905AA05BB0560F4B401660F771FA5
:103D6000848D958D0E94CC38D8015D969C938E935E
:103D70005C97F801868A978AA08EB18E412C512CCF
:103D800032011801FAE12F0E311CF801868997895A
:103D9000A08DB18D481659066A067B0608F05CC0F6
:103DA000B6016E0D7F1DCE0101960E94400897015D
:103DB0002C5F3F4F3E872D8789809A80AB80BC80E7
:103DC000C901032E000CAA0BBB0BAC01BD01480DB1
:103DD000591D6A1D7B1D49875A876B877C87F901AE
:103DE000EC0DFD1D9F012C193D09B90190E080E00B
:103DF00029853A854B855C8562177307840795078B
:103E000028F42191DF0112972C93ECCFED84FE84EE
:103E1000E80CF91CF601EE0DFF1D319710828D851F
:103E20009E8501978C0D9D1DD8015B969C938E936A
:103E30005A97C201880F991F5C96ED91FC91E80F8B
:103E4000F91FD1018D919C9191838083BFEF4B1A13
:103E50005B0A6B0A7B0A99CFC7012E960FB6F894BE
:103E6000DEBF0FBECDBFDF91CF911F910F91FF90AD
:103E7000EF90DF90CF90BF90AF909F908F907F900A
:103E80006F905F904F903F902F9008952F923F92A8
:103E90004F925F926F927F928F929F92AF92BF925A
:103EA000CF92DF92EF92FF920F931F93CF93DF9306
:103EB000CDB7DEB7A6970FB6F894DEBF0FBECDBF65
:103EC0008C010E94BF044B015C01980125573B4FB8
:103ED0003E8B2D8BF90180819181A281B381750187
:103EE0006401C81AD90AEA0AFB0AD701C601893F48
:103EF0009A42A105B10510F035971082180134E8F7
:103F0000231A3BEF330AD1018D919C91892B79F0D3
:103F1000F801E157FB4F80819181A281B38188151F
:103F20009905AA05BB0518F4F101118210829801C8
:103F30002C573B4F3A8B298BA80140585B4F5C8B29
:103F40004B8BC8014896988F8F8BD801AA57BB4FCF
:103F5000BC8FAB8FF801EC56FB4FFE8FED8F215FCE
:103F60003F4F38A32F8F42505109588B4F878659A6
:103F70009B4F9A8F898F1996BAA3A9A3A501940183
:103F80002C5E3F4F4F4F5F4F2BA33CA34DA35EA32F
:103F9000F80184899589A689B789892B8A2B8B2B6F
:103FA000B9F5D80112968D919C91DC01ED91FC91AF
:103FB0000284F385E02D19959C0197FF3DC0F8011F
:103FC000EA57FB4F8081882301F17801B9E7EB1AAA
:103FD000BBEFFB0AF70180819181A281B381A5012A
:103FE0009401281B390B4A0B5B0BDA01C901853C94
:103FF0009940A105B10548F0C8010E940A08D701FF
:104000008D929D92AD92BC92139790E080E0B6C1E4
:104010000E94BF04681979098A099B09F801C488BC
:10402000D588E688F788C616D706E806F90608F0A8
:10403000B8CF8EEF9FEFA2C1A989BA898D919C91CB
:104040001197820F931F8D939C93F10140815181B1
:1040500047305105F9F4A98DBA8D8D919C91119736
:10406000AC014F5F5F4F4D935C93800F911FFC013C
:10407000208FAF85B8898D919C91119701978D9371
:104080009C93892B09F084CF88E090E0F101918323
:1040900080837ECF4115510521F52F3F310581F4F5
:1040A00081E090E091838083CBA0DCA0EDA0FEA016
:1040B000A9A1BAA1CD92DD92ED92FC92139768CF9F
:1040C0000E94BF04681979098A099B0969387341FC
:1040D0008105910508F45CCFF801EA57FB4F108287
:1040E000A8CF4130510589F42E3F310519F482E003
:1040F00090E0CCCF11821082EB8DFC8D80818111FC
:1041000047CFC8010E940A0843CF4230510591F4BD
:10411000AF85B8892D933C93E98DFA8D1182108279
:1041200083E090E0D1018D939C93E989FA893183F2
:1041300020832ECF4330510571F4322F2227AF85D3
:10414000B8898D919C911197280F391F2D933C931D
:1041500084E090E09BCF4430510579F460E071E059
:104160000E9477378F3F910529F485E090E0918395
:1041700080830ECF118210820BCF4530510569F438
:10418000AB89BC892D933C9386E090E0918380833A
:10419000A989BA892D933C93FBCE46305105A1F4F1
:1041A000322F2227EB89FC8980819181280F391FCA
:1041B0003183208387E090E0D1018D939C93EF853C
:1041C000F889808191815DCF4830510509F0E0CEBA
:1041D0001182108260E071E00E9477378F3F910575
:1041E00009F0D6CEAB89BC89ED91FC91309709F0EE
:1041F000DEC0C8010E940A0886E392E09A838983A0
:104200001C821B8284E393E09E838D8398878F8337
:104210009A8789871B861C861D861E866801B8EED4
:10422000CB1ABBEFDB0A7801E6EBEE1AEBEFFE0AE6
:10423000412C22E0522E612C712CD601ED91FC9183
:104240003097A9F1848195819C838B8380819181B2
:104250009E838D8382819381DC01ED91FC910480AA
:10426000F581E02D199598878F83D601ED91FC910A
:1042700082819381DC01ED91FC910680F781E02D34
:1042800019959A8789874B865C866D867E86D601CE
:10429000ED91FC9160857185D801ED91FC910190C3
:1042A000F081E02DAE014F5F5F4FC8011995B2E07C
:1042B000CB0ED11CEC14FD0409F0BFCF412C92E0D1
:1042C000592E612C712CF701A081B1811097E1F179
:1042D00012968D919C9113979C838B8314968D914C
:1042E0009C9115979E838D83ED91FC91119704808D
:1042F000F581E02DCD01199598878F83D7018D9198
:104300009C91DC01ED91FC910680F781E02D1995DF
:104310009A8789874B865C866D867E86D801ED916B
:10432000FC91C080D180F70180819181DC01ED9109
:10433000FC910280F381E02D1995AE014F5F5F4F34
:10434000BC01C801F6011995F2E0EF0EF11CE21470
:10435000F30409F0B8CFF801EA57FB4F81E08083FE
:10436000319680829182A282B382AD89BE898D927C
:104370009D92AD92BC9213978FEF9FEFA6960FB6CA
:10438000F894DEBF0FBECDBFDF91CF911F910F918B
:10439000FF90EF90DF90CF90BF90AF909F908F9065
:1043A0007F906F905F904F903F902F900895EA30EC
:1043B000F10509F0A1C082E492E09A8389831B820F
:1043C0001C821D821E821F82188619861A860E94F0
:1043D000BF04F801C084D184E284F3849B01AC0162
:1043E0002C193D094E095F0969017A016F89788DA1
:1043F000CE0101960E94EF0CC701B60128EE33E012
:1044000040E050E00E942E3569017A019B01AC0129
:104410008B819C81AD81BE818C0D9D1DAE1DBF1D0C
:104420008B839C83AD83BE8360E472E48FE090E075
:104430000E946737CF80D884E984FA84DC01CB01FD
:104440008C0D9D1DAE1DBF1D8F839887A987BA87D0
:104450000E94BF04CF80D884E984FA8436E3D31A5B
:1044600035E6E30A34ECF30A28EE33E040E050E0AE
:104470000E942E3529013A019B01AC0160E472E4EF
:104480008FE090E00E946737A7019601261B370B4B
:10449000480B590BCA01B9012B813C814D815E81CA
:1044A000215031094109510969017A01C418D5081F
:1044B000E608F7082601370120E03AEC4AE95BE319
:1044C0000E942E35420E531E641E751ED8011C9686
:1044D0004D925D926D927C921F97F801608B718B6B
:1044E000828B938B0E94BF04AD89BE896D937D93AF
:1044F0008D939C9313974CCDE630F10559F46F8959
:10450000788D8D8D9E8D0E94C31D81E0EF8DF8A169
:1045100080833ECDEB30F10521F4AB8DBC8D1C9238
:1045200037CDEF53FE4FEE0FFF1FE00FF11F8081DD
:104530009181009709F42CCDDC01ED91FC91019063
:10454000F081E02D6F89788D199522CDEF92FF9241
:104550000F931F93CF93DF937C018B01DC011296A5
:10456000ED91FC91EF0109900020E9F72197CE1B16
:10457000DF0BAE0170E060E0C8010E947108F70136
:1045800062817381AE01C80104960E94AD39CE01EB
:104590000496DF91CF911F910F91FF90EF900895B6
:1045A000EF92FF920F931F93CF93DF938C01EB0158
:1045B000FC01A281B381FD0101900020E9F7319750
:1045C0007F01EA1AFB0AA70170E060E0CE010E94B9
:1045D0007108F80162817381A701CE0104960E94DF
:1045E000AD39CE0DDF1DF80184818C8385818D83EB
:1045F00086818E8387818F8380858887818589875F
:1046000082858A8783858B87C7010C96DF91CF913E
:104610001F910F91FF90EF900895EF92FF920F93EB
:104620001F93CF93DF938C01EB01FC018281888380
:104630008381898384818A8385818B8386818C832E
:1046400087818D8380858E8381858F83828588870E
:104650008385898784858A8785858B87A685B785A5
:10466000FD0101900020E9F731977F01EA1AFB0A6A
:10467000A70170E060E0CE010C960E947108F8017D
:1046800066857785A701CE0140960E94AD39C701A6
:104690004096DF91CF911F910F91FF90EF90089579
:1046A000AF92BF92CF92DF92EF92FF920F931F9340
:1046B000CF93DF938C017B0102960E940D23EC01C6
:1046C000B701680F791FC80142960E948C0FC80F6E
:1046D000D91F680184E2C80ED11C5801E8E4AE0E6F
:1046E000B11CF60141915191619171916F01C70126
:1046F0008C0F9D1F0E94E10EC80FD91FCA14DB0446
:1047000081F7B7016C0F7D1FC6010E945C0FC80FB7
:10471000D91F6801F6E5CF0ED11C58018AE7A80E13
:10472000B11CF60141915191619171916F01C701E5
:104730008C0F9D1F0E94E10EC80FD91FAC14BD0441
:1047400081F7B7016C0F7D1FC5010E945C0FC80F78
:10475000D91F6801F8E8CF0ED11C04551F4FF60190
:1047600041915191619171916F01C7018C0F9D1F12
:104770000E94E10EC80FD91FC016D10681F7CE01E5
:10478000DF91CF911F910F91FF90EF90DF90CF902D
:10479000BF90AF9008954F925F926F927F928F92E9
:1047A0009F92AF92BF92CF92DF92EF92FF920F93C0
:1047B0001F93CF93DF93EC017B018A81FB01808300
:1047C0008B8181838C8182838D8183833496412C7C
:1047D000512C320104E010E09F012F5F3F4FCF01C9
:1047E0000296DF011396A8010C5F1F4F8A809B8001
:1047F000AC80BD80481459046A047B04C8F4AA85BF
:10480000BB85A40FB51F14974C9111962C9111974D
:1048100012969C91129713968C91408321839283D8
:1048200083838FEF481A580A680A780A3496D4CFDF
:104830004C8540834D85F90140832E85FC01208302
:104840008F858C93F701E00FF11F412C512C320121
:10485000AF019F012F5F3F4FCF010296DF011396FB
:104860000C5F1F4F8C849D84AE84BF844814590410
:104870006A047B04D8F4CF01841B950BAC89BD89F5
:10488000A80FB91F3C9111962C91119712969C91EB
:10489000129713968C9130832183928383838FEFB9
:1048A000481A580A680A780A3496D3CF4E8940834A
:1048B0004F89F9014083288DFC012083898D8C93D9
:1048C000412C512C32018E899F89A88DB98D4816B3
:1048D00059066A067B0680F55201AA0CBB1CEC8DBA
:1048E000FD8DEA0DFB1DA081B181FD01019000202D
:1048F000E9F731976F01CA1ADB0AA60170E060E0A0
:10490000C701800F911F0E9471080C5F1F4F8C8D93
:104910009D8DA80EB91EF50160817181A601C701A8
:10492000800F911F0E94AD390C0D1D1DFFEF4F1A16
:104930005F0A6F0A7F0AC7CFC801DF91CF911F912D
:104940000F91FF90EF90DF90CF90BF90AF909F902E
:104950008F907F906F905F904F900895EF92FF92AD
:104960000F931F93CF93DF938C017B01DC01129691
:104970002C911297FB012193CF011396ED91FC919D
:10498000EF0109900020E9F72197CE1BDF0BAE0164
:1049900070E060E00E947108D80113966D917C91DF
:1049A000AE01C70105960E94AD39CE010596DF9193
:1049B000CF911F910F91FF90EF900895CF92DF92CA
:1049C000EF92FF920F931F93CF93DF936C01EB0154
:1049D000DC0112968C911297888313968C91139711
:1049E00089831496ED91FC91DF010D900020E9F789
:1049F0008D01015011090E1B1F0BA80170E060E032
:104A0000CE0102960E947108F60164817581A801A9
:104A1000CE0106960E94AD39C8010696F601A68120
:104A2000B781FD0101900020E9F731977F01EA1A73
:104A3000FB0AA70170E060E08C0F9D1F0E947108C7
:104A4000065F1F4FD60116966D917C91A701CE018E
:104A5000800F911F0E94AD390E0D1F1DF601A0851C
:104A6000B185FD0101900020E9F731977F01EA1A35
:104A7000FB0AA70170E060E0CE01800F911F0E9449
:104A800071080C5F1F4FD60118966D917C91A7019C
:104A9000CE01800F911F0E94AD39C701800F911F79
:104AA000F6016285438534852585C80FD91F688343
:104AB00049833A832B830496DF91CF911F910F9105
:104AC000FF90EF90DF90CF9008951F920F920FB656
:104AD0000F9211240BB60F922F933F934F935F9336
:104AE0006F937F938F939F93AF93BF93EF93FF93B6
:104AF00088E897E00E94BC02FF91EF91BF91AF91CF
:104B00009F918F917F916F915F914F913F912F91E5
:104B10000F900BBE0F900FBE0F901F9018951F9215
:104B20000F920FB60F9211240BB60F922F933F9353
:104B30004F935F936F937F938F939F93AF93BF93A5
:104B4000EF93FF9388E897E00E944502FF91EF9171
:104B5000BF91AF919F918F917F916F915F914F9195
:104B60003F912F910F900BBE0F900FBE0F901F9093
:104B700018951F920F920FB60F9211240BB60F9239
:104B80002F933F934F935F936F937F938F939F9355
:104B9000AF93BF93EF93FF9387EE99E00E94BC021F
:104BA000FF91EF91BF91AF919F918F917F916F9105
:104BB0005F914F913F912F910F900BBE0F900FBEC1
:104BC0000F901F9018951F920F920FB60F921124FD
:104BD0000BB60F922F933F934F935F936F937F93F7
:104BE0008F939F93AF93BF93EF93FF9387EE99E0DB
:104BF0000E944502FF91EF91BF91AF919F918F91DC
:104C00007F916F915F914F913F912F910F900BBECC
:104C10000F900FBE0F901F9018951F920F920FB616
:104C20000F9211240BB60F922F933F934F935F93E4
:104C30006F937F938F939F93AF93BF93EF93FF9364
:104C400086E49CE00E94BC02FF91EF91BF91AF917E
:104C50009F918F917F916F915F914F913F912F9194
:104C60000F900BBE0F900FBE0F901F9018951F92C4
:104C70000F920FB60F9211240BB60F922F933F9302
:104C80004F935F936F937F938F939F93AF93BF9354
:104C9000EF93FF9386E49CE00E944502FF91EF9121
:104CA000BF91AF919F918F917F916F915F914F9144
:104CB0003F912F910F900BBE0F900FBE0F901F9042
:104CC00018951F920F920FB60F9211242F933F93B6
:104CD0008F939F93AF93BF938091C1069091C2062B
:104CE000A091C306B091C4063091C00623E0230F03
:104CF0002D3758F50196A11DB11D2093C006809354
:104D0000C1069093C206A093C306B093C4068091D7
:104D1000C5069091C606A091C706B091C806019637
:104D2000A11DB11D8093C5069093C606A093C7062A
:104D3000B093C806BF91AF919F918F913F912F91F2
:104D40000F900FBE0F901F90189526E8230F029624
:104D5000A11DB11DD2CF1F920F920FB60F92112439
:104D60000BB60F922F933F934F935F936F937F9365
:104D70008F939F93AF93BF93EF93FF93E0910E02B6
:104D8000F0910F021995FF91EF91BF91AF919F9113
:104D90008F917F916F915F914F913F912F910F90E4
:104DA0000BBE0F900FBE0F901F9018951F920F9281
:104DB0000FB60F9211240BB60F922F933F934F9380
:104DC0005F936F937F938F939F93AF93BF93EF9373
:104DD000FF93E0910C02F0910D021995FF91EF9174
:104DE000BF91AF919F918F917F916F915F914F9103
:104DF0003F912F910F900BBE0F900FBE0F901F9001
:104E000018951F920F920FB60F9211240BB60F92A6
:104E10002F933F934F935F936F937F938F939F93C2
:104E2000AF93BF93EF93FF93E0910202F0910302DF
:104E30001995FF91EF91BF91AF919F918F917F91C4
:104E40006F915F914F913F912F910F900BBE0F90FB
:104E50000FBE0F901F9018951F920F920FB60F92D2
:104E600011240BB60F922F933F934F935F936F9341
:104E70007F938F939F93AF93BF93EF93FF93E091B3
:104E80000002F09101021995FF91EF91BF91AF914E
:104E90009F918F917F916F915F914F913F912F9152
:104EA0000F900BBE0F900FBE0F901F9018951F9282
:104EB0000F920FB60F9211240BB60F922F933F93C0
:104EC0004F935F936F937F938F939F93AF93BF9312
:104ED000EF93FF93E0910A02F0910B021995FF9175
:104EE000EF91BF91AF919F918F917F916F915F9162
:104EF0004F913F912F910F900BBE0F900FBE0F90CF
:104F00001F9018951F920F920FB60F9211240BB697
:104F10000F922F933F934F935F936F937F938F9352
:104F20009F93AF93BF93EF93FF93E0910802F091AB
:104F300009021995FF91EF91BF91AF919F918F91C8
:104F40007F916F915F914F913F912F910F900BBE89
:104F50000F900FBE0F901F9018951F920F920FB6D3
:104F60000F9211240BB60F922F933F934F935F93A1
:104F70006F937F938F939F93AF93BF93EF93FF9321
:104F8000E0910602F09107021995FF91EF91BF9110
:104F9000AF919F918F917F916F915F914F913F91D1
:104FA0002F910F900BBE0F900FBE0F901F90189572
:104FB0001F920F920FB60F9211240BB60F922F93E0
:104FC0003F934F935F936F937F938F939F93AF9391
:104FD000BF93EF93FF93E0910402F09105021995BE
:104FE000FF91EF91BF91AF919F918F917F916F91C1
:104FF0005F914F913F912F910F900BBE0F900FBE7D
:105000000F901F9018951F920F920FB60F921124B8
:105010000BB60F922F933F934F935F936F937F93B2
:105020008F939F93AF93BF93EF93FF93E091BE064F
:10503000F091BF06309749F0A685B7858585968D96
:1050400091FF16C09C918923B1F4FF91EF91BF911C
:10505000AF919F918F917F916F915F914F913F9110
:105060002F910F900BBE0F900FBE0F901F901895B1
:105070009C91892351F7A389B4899C918589809556
:1050800089238C93868997890197F1F7608D718DBB
:10509000A685B785558538E020E0CB010197F1F76B
:1050A000822F90E095958795282F4C91452309F004
:1050B0002068315091F7868D81FD20958091BC0646
:1050C00090E001968F7399273091BD06381799F0BB
:1050D000A091BC06B0E0A458B94F2C938093BC06B5
:1050E000828D938D0197F1F7A389B4898C9195896D
:1050F000892B8C93AACF868D8160868FF1CF1F92EA
:105100000F920FB60F9211240BB60F922F933F936D
:105110004F935F936F937F938F939F93AF93BF93BF
:10512000EF93FF938091B900887F803609F44DC0DA
:1051300008F040C0883209F4A9C028F5803109F48C
:105140009DC0C8F4882309F4FBC0883009F496C0D8
:10515000FF91EF91BF91AF919F918F917F916F914F
:105160005F914F913F912F910F900BBE0F900FBE0B
:105170000F901F901895883109F488C0803241F74C
:1051800080935C0714C0803409F49DC040F48033E0
:10519000B9F38833E9F680935C0785ECB0C08035BD
:1051A00009F485C0883509F496C0883489F60E94D0
:1051B000211CCECF883909F48CC038F5883729F006
:1051C00050F4883611F0803719F683E080935E073B
:1051D00010927B0657C0883809F47BC0803919F0DB
:1051E000803809F0B5CF80917B06803208F071C01D
:1051F000E0917B0681E08E0F80937B068091BB005F
:10520000F0E0E55AF94F80833DC0803B39F0E0F48F
:10521000803A09F479C0883A09F09ACF84E0809303
:105220005E0710925A0610925906E091CB06F09153
:10523000CC0619958091590681110FC081E08093A9
:1052400059061092390609C0803C09F4A6CF883C63
:1052500009F4A3CF883B09F07BCFE0915A0681E0A7
:105260008E0F80935A06F0E0E75CF94F80818093BF
:10527000BB0090915A068091590629C08091390748
:105280008093BB0085EC8093BC0062CF90915B075C
:1052900080915A07981758F5E0915B0781E08E0FCF
:1052A00080935B07F0E0E65CF84F8081E9CFE09106
:1052B0005B0781E08E0F80935B078091BB00F0E07D
:1052C000E65CF84F808390915B0780915A079817AE
:1052D000C8F285E8D8CFE0915B0781E08E0F80931C
:1052E0005B078091BB00F0E0E65CF84F8083809123
:1052F0005D0781115CCF81E08093380784EA809359
:10530000BC0010925E0724CF85EC8093BC00109205
:105310005E0780917B06803230F4E0917B06F0E0FE
:10532000E55AF94F108260917B0670E0E091C90662
:10533000F091CA068BE596E0199510927B0608CF8E
:1053400010925C0734CFCF92DF92EF92FF92CF930F
:10535000DF9310928B0710928A0788EE93E0A0E00B
:10536000B0E080938C0790938D07A0938E07B09345
:105370008F072AE532E0309389072093880745E3B9
:1053800051E0509395074093940744E351E05093C4
:1053900097074093960740E351E050939907409355
:1053A000980741E351E050939B0740939A0742E3EB
:1053B00051E050939D0740939C0746E351E0509382
:1053C0009F0740939E071092A1071092A207109288
:1053D000A4071092A3071092A6071092A507109297
:1053E000EA091092E9098093EB099093EC09A093E4
:1053F000ED09B093EE093093E8092093E70945EDF4
:1054000050E05093F4094093F30944ED50E0509379
:10541000F6094093F50940ED50E05093F8094093A8
:10542000F70941ED50E05093FA094093F90942ED34
:1054300050E05093FC094093FB0946ED50E0509337
:10544000FE094093FD091092000A1092010A109281
:10545000030A1092020A1092050A1092040A10928E
:10546000490C1092480C80934A0C90934B0CA093DB
:105470004C0CB0934D0C3093470C2093460C25EC0C
:1054800030E03093530C2093520C24EC30E03093F6
:10549000550C2093540C20EC30E03093570C2093A3
:1054A000560C21EC30E03093590C2093580C22EC30
:1054B00030E030935B0C20935A0C26EC30E03093B4
:1054C0005D0C20935C0C10925F0C1092600C10929B
:1054D000620C1092610C1092640C1092630C10928A
:1054E0004716109246168093481690934916A0933B
:1054F0004A16B0934B1682EE92E090934516809335
:10550000441610925B1610925A1610925D16109265
:105510005C1610925F1610925E1610926116109231
:105520006016609162166E7F6D7F6093621666955D
:10553000617081E068278FE30E94090461E08FE3D6
:105540000E943704E9E7F3E0E491E0935416E3E3C3
:10555000F3E0E491F0E0EE0FFF1FE652FD4F85917E
:105560009491909356168093551660E08EE30E94B6
:1055700037048091621681FD04C061E08EE30E94D1
:1055800009048EE380935016E8E7F3E0E491E0939A
:105590005116E2E3F3E0E491F0E0EE0FFF1FE05478
:1055A000FD4F85919491909353168093521680E805
:1055B0009AE1A6E0B0E08093AB149093AC14A09372
:1055C000AD14B093AE1430E83093B61480E492E496
:1055D000AFE0B0E08093B7149093B814A093B914DF
:1055E000B093BA1480EC91EEA4EEB0E08093BB14BB
:1055F0009093BC14A093BD14B093BE148CE59FEEA1
:10560000A6EAB3E48093271590932815A093291553
:10561000B0932A1580E090E0A8EAB1E480932B15BE
:1056200090932C15A0932D15B0932E1584E690E041
:10563000909337158093361580E090E0A0E8BFE3A3
:105640008093801590938115A0938215B093831554
:105650008093841590938515A0938615B093871534
:105660008093881590938915A0938A15B0938B1514
:1056700048EE53E050938D1540938C154AE959E953
:1056800069E97EE340938E1550938F1560939015D2
:105690007093911548E0409392158093CD159093A7
:1056A000CE15A093CF15B093D0158093D1159093BC
:1056B000D215A093D315B093D4158093D51590939C
:1056C000D615A093D715B093D8151092DE15109269
:1056D000DD1561E070E07093E0156093DF151092C6
:1056E000E2151092E1157093E4156093E3151092A2
:1056F000E6151092E5151092E8151092E715109234
:10570000EA151092E9151092EC151092EB156FEF57
:105710007FEF7093EE156093ED1529E7C22E29EE09
:10572000D22E2CE1E22E21E4F22EC092EF15D0927F
:10573000F015E092F115F092F21555E3C52E5AEFEF
:10574000D52E5EE8E52E5CE3F52EC092F315D092DF
:10575000F415E092F515F092F6152BE32093F7156A
:1057600023E42093F81521E42093F91529E42093EC
:10577000FA152CE12093FB151092FC154093FD15B2
:1057800050E15093FE1528E12093FF156BE16093E3
:1057900000161092011640930216509303162093A0
:1057A00004162DE12093051621E020930616C2E091
:1057B000C093071663E060930816F4E0F0930916AF
:1057C000E5E0E0930A1676E070930B16DAE1D093E9
:1057D0000C1620930D16C0930E1660930F16F093BF
:1057E0001016E09311167093121679E17093131648
:1057F00077E37093141678E37093151610921616CB
:105800001092171670E47093181620931916EBE691
:10581000E0931A16E0E2E0931B1630931C162093D7
:105820001D16FCE6F0931E1610921F16F7E0F0937B
:105830002016FAE6F0932116E0932216EDE0E093AD
:105840002316E4E2E0932416E5E2E0932516E6E26F
:10585000E0932616E3E6E0932716E7E2E0932816A6
:105860003093291630932A16E9E6E0932B163093ED
:105870002C1670932D167EE170932E167FE1709397
:105880002F1675E77093301673E2709331163093CC
:10589000321630E730933316409334162093351682
:1058A00032E73093361634E7309337163CE03093C6
:1058B0003816609339163AE030933A1610923B1638
:1058C00032E130933C1636E130933D163FE03093A1
:1058D0003E163BE030933F162093401650934116FE
:1058E0001092421647EA54E15093B2144093B11417
:1058F00035E33093B3142093B414109243164DEC57
:105900005CEC6CEC7DE340938214509383146093C1
:105910008414709385148093971490939814A09393
:105920009914B0939A1410929B1410929C14109294
:105930009D1410929E1410929F141092A014109215
:10594000A1141092A2141092A3141092A4141092F5
:10595000A5141092A61480E090E0A0E0BBE3809331
:10596000931490939414A0939514B093961410925A
:10597000921488ED92E09093D10F8093D00F86E43B
:105980009CE09093D30F8093D20F80E091EEA0E043
:10599000B0E08093D40F9093D50FA093D60FB0931F
:1059A000D70F109256148CEC92E09093651480936C
:1059B000641410927A1410927B1410927C1410923A
:1059C0007D141092811410928014E8EEF3E18AE1C4
:1059D00094E1119211928E179F07D9F7EAE1F4E151
:1059E0008CE494E1119211928E179F07D9F7E8EE9B
:1059F000FFE0119281E1E83EF807D9F7E8EEF1E126
:105A000088EE93E111928E179F07E1F710926614CA
:105A100010926714109268141092691410926F1407
:105A200010926E14109270141092711410927214DD
:105A30001092731410927914109278141092E40F4B
:105A40001092E50F1092E60F1092E70F80EC92E0B3
:105A50009093250F8093240F84EB92E09093270F6F
:105A60008093260F1092280F1092290F10922A0F60
:105A700010922B0F10922C0F10922D0F10922E0FB0
:105A800010922F0F1092300F1092310F1092320F90
:105A90001092330F84E393E09093350F8093340F8B
:105AA00088EA92E09093370F8093360F1092380F68
:105AB0001092390F10923A0F10923B0F10923C0F38
:105AC00010923D0F10923E0F10923F0F1092400F18
:105AD0001092410F1092420F1092430F1092440FF8
